{
    "_format": "hh-sol-artifact-1",
    "contractName": "Domains",
    "sourceName": "contracts/Domains.sol",
    "abi": [
        {
            "inputs": [
                {
                    "internalType": "string",
                    "name": "_tld",
                    "type": "string"
                }
            ],
            "stateMutability": "payable",
            "type": "constructor"
        },
        {
            "anonymous": false,
            "inputs": [
                {
                    "indexed": true,
                    "internalType": "address",
                    "name": "owner",
                    "type": "address"
                },
                {
                    "indexed": true,
                    "internalType": "address",
                    "name": "approved",
                    "type": "address"
                },
                {
                    "indexed": true,
                    "internalType": "uint256",
                    "name": "tokenId",
                    "type": "uint256"
                }
            ],
            "name": "Approval",
            "type": "event"
        },
        {
            "anonymous": false,
            "inputs": [
                {
                    "indexed": true,
                    "internalType": "address",
                    "name": "owner",
                    "type": "address"
                },
                {
                    "indexed": true,
                    "internalType": "address",
                    "name": "operator",
                    "type": "address"
                },
                {
                    "indexed": false,
                    "internalType": "bool",
                    "name": "approved",
                    "type": "bool"
                }
            ],
            "name": "ApprovalForAll",
            "type": "event"
        },
        {
            "anonymous": false,
            "inputs": [
                {
                    "indexed": true,
                    "internalType": "address",
                    "name": "from",
                    "type": "address"
                },
                {
                    "indexed": true,
                    "internalType": "address",
                    "name": "to",
                    "type": "address"
                },
                {
                    "indexed": true,
                    "internalType": "uint256",
                    "name": "tokenId",
                    "type": "uint256"
                }
            ],
            "name": "Transfer",
            "type": "event"
        },
        {
            "inputs": [
                {
                    "internalType": "address",
                    "name": "to",
                    "type": "address"
                },
                {
                    "internalType": "uint256",
                    "name": "tokenId",
                    "type": "uint256"
                }
            ],
            "name": "approve",
            "outputs": [],
            "stateMutability": "nonpayable",
            "type": "function"
        },
        {
            "inputs": [
                {
                    "internalType": "address",
                    "name": "owner",
                    "type": "address"
                }
            ],
            "name": "balanceOf",
            "outputs": [
                {
                    "internalType": "uint256",
                    "name": "",
                    "type": "uint256"
                }
            ],
            "stateMutability": "view",
            "type": "function"
        },
        {
            "inputs": [
                {
                    "internalType": "string",
                    "name": "",
                    "type": "string"
                }
            ],
            "name": "domains",
            "outputs": [
                {
                    "internalType": "address",
                    "name": "",
                    "type": "address"
                }
            ],
            "stateMutability": "view",
            "type": "function"
        },
        {
            "inputs": [
                {
                    "internalType": "string",
                    "name": "name",
                    "type": "string"
                }
            ],
            "name": "getAddress",
            "outputs": [
                {
                    "internalType": "address",
                    "name": "",
                    "type": "address"
                }
            ],
            "stateMutability": "view",
            "type": "function"
        },
        {
            "inputs": [
                {
                    "internalType": "uint256",
                    "name": "tokenId",
                    "type": "uint256"
                }
            ],
            "name": "getApproved",
            "outputs": [
                {
                    "internalType": "address",
                    "name": "",
                    "type": "address"
                }
            ],
            "stateMutability": "view",
            "type": "function"
        },
        {
            "inputs": [
                {
                    "internalType": "string",
                    "name": "name",
                    "type": "string"
                }
            ],
            "name": "getRecord",
            "outputs": [
                {
                    "internalType": "string",
                    "name": "",
                    "type": "string"
                }
            ],
            "stateMutability": "view",
            "type": "function"
        },
        {
            "inputs": [
                {
                    "internalType": "address",
                    "name": "owner",
                    "type": "address"
                },
                {
                    "internalType": "address",
                    "name": "operator",
                    "type": "address"
                }
            ],
            "name": "isApprovedForAll",
            "outputs": [
                {
                    "internalType": "bool",
                    "name": "",
                    "type": "bool"
                }
            ],
            "stateMutability": "view",
            "type": "function"
        },
        {
            "inputs": [],
            "name": "name",
            "outputs": [
                {
                    "internalType": "string",
                    "name": "",
                    "type": "string"
                }
            ],
            "stateMutability": "view",
            "type": "function"
        },
        {
            "inputs": [
                {
                    "internalType": "uint256",
                    "name": "tokenId",
                    "type": "uint256"
                }
            ],
            "name": "ownerOf",
            "outputs": [
                {
                    "internalType": "address",
                    "name": "",
                    "type": "address"
                }
            ],
            "stateMutability": "view",
            "type": "function"
        },
        {
            "inputs": [
                {
                    "internalType": "string",
                    "name": "name",
                    "type": "string"
                }
            ],
            "name": "price",
            "outputs": [
                {
                    "internalType": "uint256",
                    "name": "",
                    "type": "uint256"
                }
            ],
            "stateMutability": "pure",
            "type": "function"
        },
        {
            "inputs": [
                {
                    "internalType": "string",
                    "name": "",
                    "type": "string"
                }
            ],
            "name": "records",
            "outputs": [
                {
                    "internalType": "string",
                    "name": "",
                    "type": "string"
                }
            ],
            "stateMutability": "view",
            "type": "function"
        },
        {
            "inputs": [
                {
                    "internalType": "string",
                    "name": "name",
                    "type": "string"
                }
            ],
            "name": "register",
            "outputs": [],
            "stateMutability": "payable",
            "type": "function"
        },
        {
            "inputs": [
                {
                    "internalType": "address",
                    "name": "from",
                    "type": "address"
                },
                {
                    "internalType": "address",
                    "name": "to",
                    "type": "address"
                },
                {
                    "internalType": "uint256",
                    "name": "tokenId",
                    "type": "uint256"
                }
            ],
            "name": "safeTransferFrom",
            "outputs": [],
            "stateMutability": "nonpayable",
            "type": "function"
        },
        {
            "inputs": [
                {
                    "internalType": "address",
                    "name": "from",
                    "type": "address"
                },
                {
                    "internalType": "address",
                    "name": "to",
                    "type": "address"
                },
                {
                    "internalType": "uint256",
                    "name": "tokenId",
                    "type": "uint256"
                },
                {
                    "internalType": "bytes",
                    "name": "data",
                    "type": "bytes"
                }
            ],
            "name": "safeTransferFrom",
            "outputs": [],
            "stateMutability": "nonpayable",
            "type": "function"
        },
        {
            "inputs": [
                {
                    "internalType": "address",
                    "name": "operator",
                    "type": "address"
                },
                {
                    "internalType": "bool",
                    "name": "approved",
                    "type": "bool"
                }
            ],
            "name": "setApprovalForAll",
            "outputs": [],
            "stateMutability": "nonpayable",
            "type": "function"
        },
        {
            "inputs": [
                {
                    "internalType": "string",
                    "name": "name",
                    "type": "string"
                },
                {
                    "internalType": "string",
                    "name": "record",
                    "type": "string"
                }
            ],
            "name": "setRecord",
            "outputs": [],
            "stateMutability": "nonpayable",
            "type": "function"
        },
        {
            "inputs": [
                {
                    "internalType": "bytes4",
                    "name": "interfaceId",
                    "type": "bytes4"
                }
            ],
            "name": "supportsInterface",
            "outputs": [
                {
                    "internalType": "bool",
                    "name": "",
                    "type": "bool"
                }
            ],
            "stateMutability": "view",
            "type": "function"
        },
        {
            "inputs": [],
            "name": "symbol",
            "outputs": [
                {
                    "internalType": "string",
                    "name": "",
                    "type": "string"
                }
            ],
            "stateMutability": "view",
            "type": "function"
        },
        {
            "inputs": [],
            "name": "tld",
            "outputs": [
                {
                    "internalType": "string",
                    "name": "",
                    "type": "string"
                }
            ],
            "stateMutability": "view",
            "type": "function"
        },
        {
            "inputs": [
                {
                    "internalType": "uint256",
                    "name": "tokenId",
                    "type": "uint256"
                }
            ],
            "name": "tokenURI",
            "outputs": [
                {
                    "internalType": "string",
                    "name": "",
                    "type": "string"
                }
            ],
            "stateMutability": "view",
            "type": "function"
        },
        {
            "inputs": [
                {
                    "internalType": "address",
                    "name": "from",
                    "type": "address"
                },
                {
                    "internalType": "address",
                    "name": "to",
                    "type": "address"
                },
                {
                    "internalType": "uint256",
                    "name": "tokenId",
                    "type": "uint256"
                }
            ],
            "name": "transferFrom",
            "outputs": [],
            "stateMutability": "nonpayable",
            "type": "function"
        }
    ],
    "bytecode": "0x6080604052604051806108a0016040528061086b815260200162004bfa61086b913960099081620000319190620004de565b506040518060400160405280600d81526020017f3c2f746578743e3c2f7376673e00000000000000000000000000000000000000815250600a9081620000789190620004de565b50604051620054653803806200546583398181016040528101906200009e919062000729565b6040518060400160405280601181526020017f5641524d204e616d6520536572766963650000000000000000000000000000008152506040518060400160405280600381526020017f564e53000000000000000000000000000000000000000000000000000000000081525081600090816200011b9190620004de565b5080600190816200012d9190620004de565b5050508060089081620001419190620004de565b506200018e6040518060400160405280601881526020017f2573206e616d652073657276696365206465706c6f7965640000000000000000815250826200019560201b6200145a1760201c565b5062000807565b620002378282604051602401620001ae929190620007cc565b6040516020818303038152906040527f4b5c4277000000000000000000000000000000000000000000000000000000007bffffffffffffffffffffffffffffffffffffffffffffffffffffffff19166020820180517bffffffffffffffffffffffffffffffffffffffffffffffffffffffff83818316178352505050506200023b60201b60201c565b5050565b60008151905060006a636f6e736f6c652e6c6f679050602083016000808483855afa5050505050565b600081519050919050565b7f4e487b7100000000000000000000000000000000000000000000000000000000600052604160045260246000fd5b7f4e487b7100000000000000000000000000000000000000000000000000000000600052602260045260246000fd5b60006002820490506001821680620002e657607f821691505b602082108103620002fc57620002fb6200029e565b5b50919050565b60008190508160005260206000209050919050565b60006020601f8301049050919050565b600082821b905092915050565b600060088302620003667fffffffffffffffffffffffffffffffffffffffffffffffffffffffffffffffff8262000327565b62000372868362000327565b95508019841693508086168417925050509392505050565b6000819050919050565b6000819050919050565b6000620003bf620003b9620003b3846200038a565b62000394565b6200038a565b9050919050565b6000819050919050565b620003db836200039e565b620003f3620003ea82620003c6565b84845462000334565b825550505050565b600090565b6200040a620003fb565b62000417818484620003d0565b505050565b5b818110156200043f576200043360008262000400565b6001810190506200041d565b5050565b601f8211156200048e57620004588162000302565b620004638462000317565b8101602085101562000473578190505b6200048b620004828562000317565b8301826200041c565b50505b505050565b600082821c905092915050565b6000620004b36000198460080262000493565b1980831691505092915050565b6000620004ce8383620004a0565b9150826002028217905092915050565b620004e98262000264565b67ffffffffffffffff8111156200050557620005046200026f565b5b620005118254620002cd565b6200051e82828562000443565b600060209050601f83116001811462000556576000841562000541578287015190505b6200054d8582620004c0565b865550620005bd565b601f198416620005668662000302565b60005b82811015620005905784890151825560018201915060208501945060208101905062000569565b86831015620005b05784890151620005ac601f891682620004a0565b8355505b6001600288020188555050505b505050505050565b6000604051905090565b600080fd5b600080fd5b600080fd5b600080fd5b6000601f19601f8301169050919050565b620005ff82620005e3565b810181811067ffffffffffffffff821117156200062157620006206200026f565b5b80604052505050565b600062000636620005c5565b9050620006448282620005f4565b919050565b600067ffffffffffffffff8211156200066757620006666200026f565b5b6200067282620005e3565b9050602081019050919050565b60005b838110156200069f57808201518184015260208101905062000682565b60008484015250505050565b6000620006c2620006bc8462000649565b6200062a565b905082815260208101848484011115620006e157620006e0620005de565b5b620006ee8482856200067f565b509392505050565b600082601f8301126200070e576200070d620005d9565b5b815162000720848260208601620006ab565b91505092915050565b600060208284031215620007425762000741620005cf565b5b600082015167ffffffffffffffff811115620007635762000762620005d4565b5b6200077184828501620006f6565b91505092915050565b600082825260208201905092915050565b6000620007988262000264565b620007a481856200077a565b9350620007b68185602086016200067f565b620007c181620005e3565b840191505092915050565b60006040820190508181036000830152620007e881856200078b565b90508181036020830152620007fe81846200078b565b90509392505050565b6143e380620008176000396000f3fe60806040526004361061012a5760003560e01c80636352211e116100ab578063bf40fac11161006f578063bf40fac114610428578063c1880a9814610465578063c87b56dd1461048e578063e985e9c5146104cb578063f2c298be14610508578063fe2c6198146105245761012a565b80636352211e1461033157806370a082311461036e57806395d89b41146103ab578063a22cb465146103d6578063b88d4fde146103ff5761012a565b806323b872dd116100f257806323b872dd1461023a57806326449235146102635780632d551432146102a057806342842e0e146102cb578063541e771d146102f45761012a565b806301ffc9a71461012f57806306fdde031461016c578063081812fc14610197578063095ea7b3146101d457806311dd8845146101fd575b600080fd5b34801561013b57600080fd5b50610156600480360381019061015191906129c5565b610561565b6040516101639190612a0d565b60405180910390f35b34801561017857600080fd5b50610181610643565b60405161018e9190612ab8565b60405180910390f35b3480156101a357600080fd5b506101be60048036038101906101b99190612b10565b6106d5565b6040516101cb9190612b7e565b60405180910390f35b3480156101e057600080fd5b506101fb60048036038101906101f69190612bc5565b61071b565b005b34801561020957600080fd5b50610224600480360381019061021f9190612c6a565b610832565b6040516102319190612ab8565b60405180910390f35b34801561024657600080fd5b50610261600480360381019061025c9190612cb7565b6108e5565b005b34801561026f57600080fd5b5061028a60048036038101906102859190612e3a565b610945565b6040516102979190612b7e565b60405180910390f35b3480156102ac57600080fd5b506102b561098e565b6040516102c29190612ab8565b60405180910390f35b3480156102d757600080fd5b506102f260048036038101906102ed9190612cb7565b610a1c565b005b34801561030057600080fd5b5061031b60048036038101906103169190612e3a565b610a3c565b6040516103289190612ab8565b60405180910390f35b34801561033d57600080fd5b5061035860048036038101906103539190612b10565b610af2565b6040516103659190612b7e565b60405180910390f35b34801561037a57600080fd5b5061039560048036038101906103909190612e83565b610b78565b6040516103a29190612ebf565b60405180910390f35b3480156103b757600080fd5b506103c0610c2f565b6040516103cd9190612ab8565b60405180910390f35b3480156103e257600080fd5b506103fd60048036038101906103f89190612f06565b610cc1565b005b34801561040b57600080fd5b5061042660048036038101906104219190612fe7565b610cd7565b005b34801561043457600080fd5b5061044f600480360381019061044a9190612c6a565b610d39565b60405161045c9190612b7e565b60405180910390f35b34801561047157600080fd5b5061048c6004803603810190610487919061306a565b610d84565b005b34801561049a57600080fd5b506104b560048036038101906104b09190612b10565b610e32565b6040516104c29190612ab8565b60405180910390f35b3480156104d757600080fd5b506104f260048036038101906104ed91906130eb565b610f44565b6040516104ff9190612a0d565b60405180910390f35b610522600480360381019061051d9190612c6a565b610fd8565b005b34801561053057600080fd5b5061054b60048036038101906105469190612c6a565b6113b9565b6040516105589190612ebf565b60405180910390f35b60007f80ac58cd000000000000000000000000000000000000000000000000000000007bffffffffffffffffffffffffffffffffffffffffffffffffffffffff1916827bffffffffffffffffffffffffffffffffffffffffffffffffffffffff1916148061062c57507f5b5e139f000000000000000000000000000000000000000000000000000000007bffffffffffffffffffffffffffffffffffffffffffffffffffffffff1916827bffffffffffffffffffffffffffffffffffffffffffffffffffffffff1916145b8061063c575061063b826114f6565b5b9050919050565b6060600080546106529061315a565b80601f016020809104026020016040519081016040528092919081815260200182805461067e9061315a565b80156106cb5780601f106106a0576101008083540402835291602001916106cb565b820191906000526020600020905b8154815290600101906020018083116106ae57829003601f168201915b5050505050905090565b60006106e082611560565b6004600083815260200190815260200160002060009054906101000a900473ffffffffffffffffffffffffffffffffffffffff169050919050565b600061072682610af2565b90508073ffffffffffffffffffffffffffffffffffffffff168373ffffffffffffffffffffffffffffffffffffffff1603610796576040517f08c379a000000000000000000000000000000000000000000000000000000000815260040161078d906131fd565b60405180910390fd5b8073ffffffffffffffffffffffffffffffffffffffff166107b56115ab565b73ffffffffffffffffffffffffffffffffffffffff1614806107e457506107e3816107de6115ab565b610f44565b5b610823576040517f08c379a000000000000000000000000000000000000000000000000000000000815260040161081a9061328f565b60405180910390fd5b61082d83836115b3565b505050565b6060600c83836040516108469291906132df565b9081526020016040518091039020805461085f9061315a565b80601f016020809104026020016040519081016040528092919081815260200182805461088b9061315a565b80156108d85780601f106108ad576101008083540402835291602001916108d8565b820191906000526020600020905b8154815290600101906020018083116108bb57829003601f168201915b5050505050905092915050565b6108f66108f06115ab565b8261166c565b610935576040517f08c379a000000000000000000000000000000000000000000000000000000000815260040161092c9061336a565b60405180910390fd5b610940838383611701565b505050565b600b818051602081018201805184825260208301602085012081835280955050505050506000915054906101000a900473ffffffffffffffffffffffffffffffffffffffff1681565b6008805461099b9061315a565b80601f01602080910402602001604051908101604052809291908181526020018280546109c79061315a565b8015610a145780601f106109e957610100808354040283529160200191610a14565b820191906000526020600020905b8154815290600101906020018083116109f757829003601f168201915b505050505081565b610a3783838360405180602001604052806000815250610cd7565b505050565b600c818051602081018201805184825260208301602085012081835280955050505050506000915090508054610a719061315a565b80601f0160208091040260200160405190810160405280929190818152602001828054610a9d9061315a565b8015610aea5780601f10610abf57610100808354040283529160200191610aea565b820191906000526020600020905b815481529060010190602001808311610acd57829003601f168201915b505050505081565b600080610afe836119fa565b9050600073ffffffffffffffffffffffffffffffffffffffff168173ffffffffffffffffffffffffffffffffffffffff1603610b6f576040517f08c379a0000000000000000000000000000000000000000000000000000000008152600401610b66906133d6565b60405180910390fd5b80915050919050565b60008073ffffffffffffffffffffffffffffffffffffffff168273ffffffffffffffffffffffffffffffffffffffff1603610be8576040517f08c379a0000000000000000000000000000000000000000000000000000000008152600401610bdf90613468565b60405180910390fd5b600360008373ffffffffffffffffffffffffffffffffffffffff1673ffffffffffffffffffffffffffffffffffffffff168152602001908152602001600020549050919050565b606060018054610c3e9061315a565b80601f0160208091040260200160405190810160405280929190818152602001828054610c6a9061315a565b8015610cb75780601f10610c8c57610100808354040283529160200191610cb7565b820191906000526020600020905b815481529060010190602001808311610c9a57829003601f168201915b5050505050905090565b610cd3610ccc6115ab565b8383611a37565b5050565b610ce8610ce26115ab565b8361166c565b610d27576040517f08c379a0000000000000000000000000000000000000000000000000000000008152600401610d1e9061336a565b60405180910390fd5b610d3384848484611ba3565b50505050565b6000600b8383604051610d4d9291906132df565b908152602001604051809103902060009054906101000a900473ffffffffffffffffffffffffffffffffffffffff16905092915050565b3373ffffffffffffffffffffffffffffffffffffffff16600b8585604051610dad9291906132df565b908152602001604051809103902060009054906101000a900473ffffffffffffffffffffffffffffffffffffffff1673ffffffffffffffffffffffffffffffffffffffff1614610dfc57600080fd5b8181600c8686604051610e109291906132df565b90815260200160405180910390209182610e2b92919061363f565b5050505050565b6060610e3d82611560565b6000600660008481526020019081526020016000208054610e5d9061315a565b80601f0160208091040260200160405190810160405280929190818152602001828054610e899061315a565b8015610ed65780601f10610eab57610100808354040283529160200191610ed6565b820191906000526020600020905b815481529060010190602001808311610eb957829003601f168201915b505050505090506000610ee7611bff565b90506000815103610efc578192505050610f3f565b600082511115610f31578082604051602001610f19929190613740565b60405160208183030381529060405292505050610f3f565b610f3a84611c16565b925050505b919050565b6000600560008473ffffffffffffffffffffffffffffffffffffffff1673ffffffffffffffffffffffffffffffffffffffff16815260200190815260200160002060008373ffffffffffffffffffffffffffffffffffffffff1673ffffffffffffffffffffffffffffffffffffffff16815260200190815260200160002060009054906101000a900460ff16905092915050565b600073ffffffffffffffffffffffffffffffffffffffff16600b83836040516110029291906132df565b908152602001604051809103902060009054906101000a900473ffffffffffffffffffffffffffffffffffffffff1673ffffffffffffffffffffffffffffffffffffffff161461105157600080fd5b600061105d83836113b9565b9050803410156110a2576040517f08c379a0000000000000000000000000000000000000000000000000000000008152600401611099906137b0565b60405180910390fd5b6000838360086040516020016110ba9392919061389f565b60405160208183030381529060405290506000600982600a6040516020016110e4939291906138d0565b604051602081830303815290604052905060006111016007611c7e565b9050600061115287878080601f016020809104026020016040519081016040528093929190818152602001838380828437600081840152601f19601f82011690508083019250505050505050611c8c565b9050600061115f82611e41565b90506112536040518060600160405280603181526020016143046031913989898080601f016020809104026020016040519081016040528093929190818152602001838380828437600081840152601f19601f82011690508083019250505050505050600880546111cf9061315a565b80601f01602080910402602001604051908101604052809291908181526020018280546111fb9061315a565b80156112485780601f1061121d57610100808354040283529160200191611248565b820191906000526020600020905b81548152906001019060200180831161122b57829003601f168201915b505050505086611f0f565b60006112898661126287611fb1565b8460405160200161127593929190613a7d565b604051602081830303815290604052611fb1565b905060008160405160200161129e9190613b26565b60405160208183030381529060405290506112d06040518060600160405280603981526020016142cb60399139612114565b61130f6040518060400160405280600e81526020017f46696e616c20746f6b656e5552490000000000000000000000000000000000008152508261145a565b61133060405180606001604052806039815260200161433560399139612114565b61133a33866121ad565b61134485826121cb565b33600b8b8b6040516113579291906132df565b908152602001604051809103902060006101000a81548173ffffffffffffffffffffffffffffffffffffffff021916908373ffffffffffffffffffffffffffffffffffffffff1602179055506113ad6007612238565b50505050505050505050565b60008061140984848080601f016020809104026020016040519081016040528093929190818152602001838380828437600081840152601f19601f82011690508083019250505050505050611c8c565b90506000811161141857600080fd5b600381036114305766b1a2bc2ec50000915050611454565b6004810361144857666a94d74f430000915050611454565b662386f26fc100009150505b92915050565b6114f28282604051602401611470929190613b48565b6040516020818303038152906040527f4b5c4277000000000000000000000000000000000000000000000000000000007bffffffffffffffffffffffffffffffffffffffffffffffffffffffff19166020820180517bffffffffffffffffffffffffffffffffffffffffffffffffffffffff838183161783525050505061224e565b5050565b60007f01ffc9a7000000000000000000000000000000000000000000000000000000007bffffffffffffffffffffffffffffffffffffffffffffffffffffffff1916827bffffffffffffffffffffffffffffffffffffffffffffffffffffffff1916149050919050565b61156981612277565b6115a8576040517f08c379a000000000000000000000000000000000000000000000000000000000815260040161159f906133d6565b60405180910390fd5b50565b600033905090565b816004600083815260200190815260200160002060006101000a81548173ffffffffffffffffffffffffffffffffffffffff021916908373ffffffffffffffffffffffffffffffffffffffff160217905550808273ffffffffffffffffffffffffffffffffffffffff1661162683610af2565b73ffffffffffffffffffffffffffffffffffffffff167f8c5be1e5ebec7d5bd14f71427d1e84f3dd0314c0f7b2291e5b200ac8c7c3b92560405160405180910390a45050565b60008061167883610af2565b90508073ffffffffffffffffffffffffffffffffffffffff168473ffffffffffffffffffffffffffffffffffffffff1614806116ba57506116b98185610f44565b5b806116f857508373ffffffffffffffffffffffffffffffffffffffff166116e0846106d5565b73ffffffffffffffffffffffffffffffffffffffff16145b91505092915050565b8273ffffffffffffffffffffffffffffffffffffffff1661172182610af2565b73ffffffffffffffffffffffffffffffffffffffff1614611777576040517f08c379a000000000000000000000000000000000000000000000000000000000815260040161176e90613bf1565b60405180910390fd5b600073ffffffffffffffffffffffffffffffffffffffff168273ffffffffffffffffffffffffffffffffffffffff16036117e6576040517f08c379a00000000000000000000000000000000000000000000000000000000081526004016117dd90613c83565b60405180910390fd5b6117f383838360016122b8565b8273ffffffffffffffffffffffffffffffffffffffff1661181382610af2565b73ffffffffffffffffffffffffffffffffffffffff1614611869576040517f08c379a000000000000000000000000000000000000000000000000000000000815260040161186090613bf1565b60405180910390fd5b6004600082815260200190815260200160002060006101000a81549073ffffffffffffffffffffffffffffffffffffffff02191690556001600360008573ffffffffffffffffffffffffffffffffffffffff1673ffffffffffffffffffffffffffffffffffffffff168152602001908152602001600020600082825403925050819055506001600360008473ffffffffffffffffffffffffffffffffffffffff1673ffffffffffffffffffffffffffffffffffffffff16815260200190815260200160002060008282540192505081905550816002600083815260200190815260200160002060006101000a81548173ffffffffffffffffffffffffffffffffffffffff021916908373ffffffffffffffffffffffffffffffffffffffff160217905550808273ffffffffffffffffffffffffffffffffffffffff168473ffffffffffffffffffffffffffffffffffffffff167fddf252ad1be2c89b69c2b068fc378daa952ba7f163c4a11628f55a4df523b3ef60405160405180910390a46119f583838360016123de565b505050565b60006002600083815260200190815260200160002060009054906101000a900473ffffffffffffffffffffffffffffffffffffffff169050919050565b8173ffffffffffffffffffffffffffffffffffffffff168373ffffffffffffffffffffffffffffffffffffffff1603611aa5576040517f08c379a0000000000000000000000000000000000000000000000000000000008152600401611a9c90613cef565b60405180910390fd5b80600560008573ffffffffffffffffffffffffffffffffffffffff1673ffffffffffffffffffffffffffffffffffffffff16815260200190815260200160002060008473ffffffffffffffffffffffffffffffffffffffff1673ffffffffffffffffffffffffffffffffffffffff16815260200190815260200160002060006101000a81548160ff0219169083151502179055508173ffffffffffffffffffffffffffffffffffffffff168373ffffffffffffffffffffffffffffffffffffffff167f17307eab39ab6107e8899845ad3d59bd9653f200f220920489ca2b5937696c3183604051611b969190612a0d565b60405180910390a3505050565b611bae848484611701565b611bba848484846123e4565b611bf9576040517f08c379a0000000000000000000000000000000000000000000000000000000008152600401611bf090613d81565b60405180910390fd5b50505050565b606060405180602001604052806000815250905090565b6060611c2182611560565b6000611c2b611bff565b90506000815111611c4b5760405180602001604052806000815250611c76565b80611c5584611e41565b604051602001611c66929190613740565b6040516020818303038152906040525b915050919050565b600081600001549050919050565b60008060008084519050600092505b80821015611e36576000858381518110611cb857611cb7613da1565b5b602001015160f81c60f81b9050608060f81b817effffffffffffffffffffffffffffffffffffffffffffffffffffffffffffff19161015611d0757600183611d009190613dff565b9250611e22565b60e060f81b817effffffffffffffffffffffffffffffffffffffffffffffffffffffffffffff19161015611d4957600283611d429190613dff565b9250611e21565b60f060f81b817effffffffffffffffffffffffffffffffffffffffffffffffffffffffffffff19161015611d8b57600383611d849190613dff565b9250611e20565b60f8801b817effffffffffffffffffffffffffffffffffffffffffffffffffffffffffffff19161015611dcc57600483611dc59190613dff565b9250611e1f565b60fc60f81b817effffffffffffffffffffffffffffffffffffffffffffffffffffffffffffff19161015611e0e57600583611e079190613dff565b9250611e1e565b600683611e1b9190613dff565b92505b5b5b5b5b508280611e2e90613e33565b935050611c9b565b829350505050919050565b606060006001611e508461256b565b01905060008167ffffffffffffffff811115611e6f57611e6e612d0f565b5b6040519080825280601f01601f191660200182016040528015611ea15781602001600182028036833780820191505090505b509050600082602001820190505b600115611f04578080600190039150507f3031323334353637383961626364656600000000000000000000000000000000600a86061a8153600a8581611ef857611ef7613e7b565b5b04945060008503611eaf575b819350505050919050565b611fab84848484604051602401611f299493929190613eaa565b6040516020818303038152906040527f8eafb02b000000000000000000000000000000000000000000000000000000007bffffffffffffffffffffffffffffffffffffffffffffffffffffffff19166020820180517bffffffffffffffffffffffffffffffffffffffffffffffffffffffff838183161783525050505061224e565b50505050565b60606000825103611fd35760405180602001604052806000815250905061210f565b600060405180606001604052806040815260200161436e60409139905060006003600285516120029190613dff565b61200c9190613f04565b60046120189190613f35565b67ffffffffffffffff81111561203157612030612d0f565b5b6040519080825280601f01601f1916602001820160405280156120635781602001600182028036833780820191505090505b509050600182016020820185865187015b808210156120cf576003820191508151603f8160121c168501518453600184019350603f81600c1c168501518453600184019350603f8160061c168501518453600184019350603f8116850151845360018401935050612074565b50506003865106600181146120eb57600281146120fe57612106565b603d6001830353603d6002830353612106565b603d60018303535b50505080925050505b919050565b6121aa816040516024016121289190612ab8565b6040516020818303038152906040527f41304fac000000000000000000000000000000000000000000000000000000007bffffffffffffffffffffffffffffffffffffffffffffffffffffffff19166020820180517bffffffffffffffffffffffffffffffffffffffffffffffffffffffff838183161783525050505061224e565b50565b6121c78282604051806020016040528060008152506126be565b5050565b6121d482612277565b612213576040517f08c379a000000000000000000000000000000000000000000000000000000000815260040161220a90613fe9565b60405180910390fd5b806006600084815260200190815260200160002090816122339190614009565b505050565b6001816000016000828254019250508190555050565b60008151905060006a636f6e736f6c652e6c6f679050602083016000808483855afa5050505050565b60008073ffffffffffffffffffffffffffffffffffffffff16612299836119fa565b73ffffffffffffffffffffffffffffffffffffffff1614159050919050565b60018111156123d857600073ffffffffffffffffffffffffffffffffffffffff168473ffffffffffffffffffffffffffffffffffffffff161461234c5780600360008673ffffffffffffffffffffffffffffffffffffffff1673ffffffffffffffffffffffffffffffffffffffff168152602001908152602001600020600082825461234491906140db565b925050819055505b600073ffffffffffffffffffffffffffffffffffffffff168373ffffffffffffffffffffffffffffffffffffffff16146123d75780600360008573ffffffffffffffffffffffffffffffffffffffff1673ffffffffffffffffffffffffffffffffffffffff16815260200190815260200160002060008282546123cf9190613dff565b925050819055505b5b50505050565b50505050565b60006124058473ffffffffffffffffffffffffffffffffffffffff16612719565b1561255e578373ffffffffffffffffffffffffffffffffffffffff1663150b7a0261242e6115ab565b8786866040518563ffffffff1660e01b81526004016124509493929190614164565b6020604051808303816000875af192505050801561248c57506040513d601f19601f8201168201806040525081019061248991906141c5565b60015b61250e573d80600081146124bc576040519150601f19603f3d011682016040523d82523d6000602084013e6124c1565b606091505b506000815103612506576040517f08c379a00000000000000000000000000000000000000000000000000000000081526004016124fd90613d81565b60405180910390fd5b805181602001fd5b63150b7a0260e01b7bffffffffffffffffffffffffffffffffffffffffffffffffffffffff1916817bffffffffffffffffffffffffffffffffffffffffffffffffffffffff191614915050612563565b600190505b949350505050565b600080600090507a184f03e93ff9f4daa797ed6e38ed64bf6a1f01000000000000000083106125c9577a184f03e93ff9f4daa797ed6e38ed64bf6a1f01000000000000000083816125bf576125be613e7b565b5b0492506040810190505b6d04ee2d6d415b85acef81000000008310612606576d04ee2d6d415b85acef810000000083816125fc576125fb613e7b565b5b0492506020810190505b662386f26fc10000831061263557662386f26fc10000838161262b5761262a613e7b565b5b0492506010810190505b6305f5e100831061265e576305f5e100838161265457612653613e7b565b5b0492506008810190505b612710831061268357612710838161267957612678613e7b565b5b0492506004810190505b606483106126a6576064838161269c5761269b613e7b565b5b0492506002810190505b600a83106126b5576001810190505b80915050919050565b6126c8838361273c565b6126d560008484846123e4565b612714576040517f08c379a000000000000000000000000000000000000000000000000000000000815260040161270b90613d81565b60405180910390fd5b505050565b6000808273ffffffffffffffffffffffffffffffffffffffff163b119050919050565b600073ffffffffffffffffffffffffffffffffffffffff168273ffffffffffffffffffffffffffffffffffffffff16036127ab576040517f08c379a00000000000000000000000000000000000000000000000000000000081526004016127a29061423e565b60405180910390fd5b6127b481612277565b156127f4576040517f08c379a00000000000000000000000000000000000000000000000000000000081526004016127eb906142aa565b60405180910390fd5b6128026000838360016122b8565b61280b81612277565b1561284b576040517f08c379a0000000000000000000000000000000000000000000000000000000008152600401612842906142aa565b60405180910390fd5b6001600360008473ffffffffffffffffffffffffffffffffffffffff1673ffffffffffffffffffffffffffffffffffffffff16815260200190815260200160002060008282540192505081905550816002600083815260200190815260200160002060006101000a81548173ffffffffffffffffffffffffffffffffffffffff021916908373ffffffffffffffffffffffffffffffffffffffff160217905550808273ffffffffffffffffffffffffffffffffffffffff16600073ffffffffffffffffffffffffffffffffffffffff167fddf252ad1be2c89b69c2b068fc378daa952ba7f163c4a11628f55a4df523b3ef60405160405180910390a46129556000838360016123de565b5050565b6000604051905090565b600080fd5b600080fd5b60007fffffffff0000000000000000000000000000000000000000000000000000000082169050919050565b6129a28161296d565b81146129ad57600080fd5b50565b6000813590506129bf81612999565b92915050565b6000602082840312156129db576129da612963565b5b60006129e9848285016129b0565b91505092915050565b60008115159050919050565b612a07816129f2565b82525050565b6000602082019050612a2260008301846129fe565b92915050565b600081519050919050565b600082825260208201905092915050565b60005b83811015612a62578082015181840152602081019050612a47565b60008484015250505050565b6000601f19601f8301169050919050565b6000612a8a82612a28565b612a948185612a33565b9350612aa4818560208601612a44565b612aad81612a6e565b840191505092915050565b60006020820190508181036000830152612ad28184612a7f565b905092915050565b6000819050919050565b612aed81612ada565b8114612af857600080fd5b50565b600081359050612b0a81612ae4565b92915050565b600060208284031215612b2657612b25612963565b5b6000612b3484828501612afb565b91505092915050565b600073ffffffffffffffffffffffffffffffffffffffff82169050919050565b6000612b6882612b3d565b9050919050565b612b7881612b5d565b82525050565b6000602082019050612b936000830184612b6f565b92915050565b612ba281612b5d565b8114612bad57600080fd5b50565b600081359050612bbf81612b99565b92915050565b60008060408385031215612bdc57612bdb612963565b5b6000612bea85828601612bb0565b9250506020612bfb85828601612afb565b9150509250929050565b600080fd5b600080fd5b600080fd5b60008083601f840112612c2a57612c29612c05565b5b8235905067ffffffffffffffff811115612c4757612c46612c0a565b5b602083019150836001820283011115612c6357612c62612c0f565b5b9250929050565b60008060208385031215612c8157612c80612963565b5b600083013567ffffffffffffffff811115612c9f57612c9e612968565b5b612cab85828601612c14565b92509250509250929050565b600080600060608486031215612cd057612ccf612963565b5b6000612cde86828701612bb0565b9350506020612cef86828701612bb0565b9250506040612d0086828701612afb565b9150509250925092565b600080fd5b7f4e487b7100000000000000000000000000000000000000000000000000000000600052604160045260246000fd5b612d4782612a6e565b810181811067ffffffffffffffff82111715612d6657612d65612d0f565b5b80604052505050565b6000612d79612959565b9050612d858282612d3e565b919050565b600067ffffffffffffffff821115612da557612da4612d0f565b5b612dae82612a6e565b9050602081019050919050565b82818337600083830152505050565b6000612ddd612dd884612d8a565b612d6f565b905082815260208101848484011115612df957612df8612d0a565b5b612e04848285612dbb565b509392505050565b600082601f830112612e2157612e20612c05565b5b8135612e31848260208601612dca565b91505092915050565b600060208284031215612e5057612e4f612963565b5b600082013567ffffffffffffffff811115612e6e57612e6d612968565b5b612e7a84828501612e0c565b91505092915050565b600060208284031215612e9957612e98612963565b5b6000612ea784828501612bb0565b91505092915050565b612eb981612ada565b82525050565b6000602082019050612ed46000830184612eb0565b92915050565b612ee3816129f2565b8114612eee57600080fd5b50565b600081359050612f0081612eda565b92915050565b60008060408385031215612f1d57612f1c612963565b5b6000612f2b85828601612bb0565b9250506020612f3c85828601612ef1565b9150509250929050565b600067ffffffffffffffff821115612f6157612f60612d0f565b5b612f6a82612a6e565b9050602081019050919050565b6000612f8a612f8584612f46565b612d6f565b905082815260208101848484011115612fa657612fa5612d0a565b5b612fb1848285612dbb565b509392505050565b600082601f830112612fce57612fcd612c05565b5b8135612fde848260208601612f77565b91505092915050565b6000806000806080858703121561300157613000612963565b5b600061300f87828801612bb0565b945050602061302087828801612bb0565b935050604061303187828801612afb565b925050606085013567ffffffffffffffff81111561305257613051612968565b5b61305e87828801612fb9565b91505092959194509250565b6000806000806040858703121561308457613083612963565b5b600085013567ffffffffffffffff8111156130a2576130a1612968565b5b6130ae87828801612c14565b9450945050602085013567ffffffffffffffff8111156130d1576130d0612968565b5b6130dd87828801612c14565b925092505092959194509250565b6000806040838503121561310257613101612963565b5b600061311085828601612bb0565b925050602061312185828601612bb0565b9150509250929050565b7f4e487b7100000000000000000000000000000000000000000000000000000000600052602260045260246000fd5b6000600282049050600182168061317257607f821691505b6020821081036131855761318461312b565b5b50919050565b7f4552433732313a20617070726f76616c20746f2063757272656e74206f776e6560008201527f7200000000000000000000000000000000000000000000000000000000000000602082015250565b60006131e7602183612a33565b91506131f28261318b565b604082019050919050565b60006020820190508181036000830152613216816131da565b9050919050565b7f4552433732313a20617070726f76652063616c6c6572206973206e6f7420746f60008201527f6b656e206f776e6572206f7220617070726f76656420666f7220616c6c000000602082015250565b6000613279603d83612a33565b91506132848261321d565b604082019050919050565b600060208201905081810360008301526132a88161326c565b9050919050565b600081905092915050565b60006132c683856132af565b93506132d3838584612dbb565b82840190509392505050565b60006132ec8284866132ba565b91508190509392505050565b7f4552433732313a2063616c6c6572206973206e6f7420746f6b656e206f776e6560008201527f72206f7220617070726f76656400000000000000000000000000000000000000602082015250565b6000613354602d83612a33565b915061335f826132f8565b604082019050919050565b6000602082019050818103600083015261338381613347565b9050919050565b7f4552433732313a20696e76616c696420746f6b656e2049440000000000000000600082015250565b60006133c0601883612a33565b91506133cb8261338a565b602082019050919050565b600060208201905081810360008301526133ef816133b3565b9050919050565b7f4552433732313a2061646472657373207a65726f206973206e6f74206120766160008201527f6c6964206f776e65720000000000000000000000000000000000000000000000602082015250565b6000613452602983612a33565b915061345d826133f6565b604082019050919050565b6000602082019050818103600083015261348181613445565b9050919050565b600082905092915050565b60008190508160005260206000209050919050565b60006020601f8301049050919050565b600082821b905092915050565b6000600883026134f57fffffffffffffffffffffffffffffffffffffffffffffffffffffffffffffffff826134b8565b6134ff86836134b8565b95508019841693508086168417925050509392505050565b6000819050919050565b600061353c61353761353284612ada565b613517565b612ada565b9050919050565b6000819050919050565b61355683613521565b61356a61356282613543565b8484546134c5565b825550505050565b600090565b61357f613572565b61358a81848461354d565b505050565b5b818110156135ae576135a3600082613577565b600181019050613590565b5050565b601f8211156135f3576135c481613493565b6135cd846134a8565b810160208510156135dc578190505b6135f06135e8856134a8565b83018261358f565b50505b505050565b600082821c905092915050565b6000613616600019846008026135f8565b1980831691505092915050565b600061362f8383613605565b9150826002028217905092915050565b6136498383613488565b67ffffffffffffffff81111561366257613661612d0f565b5b61366c825461315a565b6136778282856135b2565b6000601f8311600181146136a65760008415613694578287013590505b61369e8582613623565b865550613706565b601f1984166136b486613493565b60005b828110156136dc578489013582556001820191506020850194506020810190506136b7565b868310156136f957848901356136f5601f891682613605565b8355505b6001600288020188555050505b50505050505050565b600061371a82612a28565b61372481856132af565b9350613734818560208601612a44565b80840191505092915050565b600061374c828561370f565b9150613758828461370f565b91508190509392505050565b7f4e6f7420656e6f756768204d6174696320706169640000000000000000000000600082015250565b600061379a601583612a33565b91506137a582613764565b602082019050919050565b600060208201905081810360008301526137c98161378d565b9050919050565b7f2e00000000000000000000000000000000000000000000000000000000000000600082015250565b60006138066001836132af565b9150613811826137d0565b600182019050919050565b600081546138298161315a565b61383381866132af565b9450600182166000811461384e576001811461386357613896565b60ff1983168652811515820286019350613896565b61386c85613493565b60005b8381101561388e5781548189015260018201915060208101905061386f565b838801955050505b50505092915050565b60006138ac8285876132ba565b91506138b7826137f9565b91506138c3828461381c565b9150819050949350505050565b60006138dc828661381c565b91506138e8828561370f565b91506138f4828461381c565b9150819050949350505050565b7f7b226e616d65223a202200000000000000000000000000000000000000000000600082015250565b6000613937600a836132af565b915061394282613901565b600a82019050919050565b7f222c20226465736372697074696f6e223a20224120646f6d61696e206f6e207460008201527f6865207661726d206e616d652073657276696365222c2022696d616765223a2060208201527f22646174613a696d6167652f7376672b786d6c3b6261736536342c0000000000604082015250565b60006139cf605b836132af565b91506139da8261394d565b605b82019050919050565b7f222c20226c656e677468223a2022000000000000000000000000000000000000600082015250565b6000613a1b600e836132af565b9150613a26826139e5565b600e82019050919050565b7f227d000000000000000000000000000000000000000000000000000000000000600082015250565b6000613a676002836132af565b9150613a7282613a31565b600282019050919050565b6000613a888261392a565b9150613a94828661370f565b9150613a9f826139c2565b9150613aab828561370f565b9150613ab682613a0e565b9150613ac2828461370f565b9150613acd82613a5a565b9150819050949350505050565b7f646174613a6170706c69636174696f6e2f6a736f6e3b6261736536342c000000600082015250565b6000613b10601d836132af565b9150613b1b82613ada565b601d82019050919050565b6000613b3182613b03565b9150613b3d828461370f565b915081905092915050565b60006040820190508181036000830152613b628185612a7f565b90508181036020830152613b768184612a7f565b90509392505050565b7f4552433732313a207472616e736665722066726f6d20696e636f72726563742060008201527f6f776e6572000000000000000000000000000000000000000000000000000000602082015250565b6000613bdb602583612a33565b9150613be682613b7f565b604082019050919050565b60006020820190508181036000830152613c0a81613bce565b9050919050565b7f4552433732313a207472616e7366657220746f20746865207a65726f2061646460008201527f7265737300000000000000000000000000000000000000000000000000000000602082015250565b6000613c6d602483612a33565b9150613c7882613c11565b604082019050919050565b60006020820190508181036000830152613c9c81613c60565b9050919050565b7f4552433732313a20617070726f766520746f2063616c6c657200000000000000600082015250565b6000613cd9601983612a33565b9150613ce482613ca3565b602082019050919050565b60006020820190508181036000830152613d0881613ccc565b9050919050565b7f4552433732313a207472616e7366657220746f206e6f6e20455243373231526560008201527f63656976657220696d706c656d656e7465720000000000000000000000000000602082015250565b6000613d6b603283612a33565b9150613d7682613d0f565b604082019050919050565b60006020820190508181036000830152613d9a81613d5e565b9050919050565b7f4e487b7100000000000000000000000000000000000000000000000000000000600052603260045260246000fd5b7f4e487b7100000000000000000000000000000000000000000000000000000000600052601160045260246000fd5b6000613e0a82612ada565b9150613e1583612ada565b9250828201905080821115613e2d57613e2c613dd0565b5b92915050565b6000613e3e82612ada565b91507fffffffffffffffffffffffffffffffffffffffffffffffffffffffffffffffff8203613e7057613e6f613dd0565b5b600182019050919050565b7f4e487b7100000000000000000000000000000000000000000000000000000000600052601260045260246000fd5b60006080820190508181036000830152613ec48187612a7f565b90508181036020830152613ed88186612a7f565b90508181036040830152613eec8185612a7f565b9050613efb6060830184612eb0565b95945050505050565b6000613f0f82612ada565b9150613f1a83612ada565b925082613f2a57613f29613e7b565b5b828204905092915050565b6000613f4082612ada565b9150613f4b83612ada565b9250828202613f5981612ada565b91508282048414831517613f7057613f6f613dd0565b5b5092915050565b7f45524337323155524953746f726167653a2055524920736574206f66206e6f6e60008201527f6578697374656e7420746f6b656e000000000000000000000000000000000000602082015250565b6000613fd3602e83612a33565b9150613fde82613f77565b604082019050919050565b6000602082019050818103600083015261400281613fc6565b9050919050565b61401282612a28565b67ffffffffffffffff81111561402b5761402a612d0f565b5b614035825461315a565b6140408282856135b2565b600060209050601f8311600181146140735760008415614061578287015190505b61406b8582613623565b8655506140d3565b601f19841661408186613493565b60005b828110156140a957848901518255600182019150602085019450602081019050614084565b868310156140c657848901516140c2601f891682613605565b8355505b6001600288020188555050505b505050505050565b60006140e682612ada565b91506140f183612ada565b925082820390508181111561410957614108613dd0565b5b92915050565b600081519050919050565b600082825260208201905092915050565b60006141368261410f565b614140818561411a565b9350614150818560208601612a44565b61415981612a6e565b840191505092915050565b60006080820190506141796000830187612b6f565b6141866020830186612b6f565b6141936040830185612eb0565b81810360608301526141a5818461412b565b905095945050505050565b6000815190506141bf81612999565b92915050565b6000602082840312156141db576141da612963565b5b60006141e9848285016141b0565b91505092915050565b7f4552433732313a206d696e7420746f20746865207a65726f2061646472657373600082015250565b6000614228602083612a33565b9150614233826141f2565b602082019050919050565b600060208201905081810360008301526142578161421b565b9050919050565b7f4552433732313a20746f6b656e20616c7265616479206d696e74656400000000600082015250565b6000614294601c83612a33565b915061429f8261425e565b602082019050919050565b600060208201905081810360008301526142c381614287565b905091905056fe0a2d2d2d2d2d2d2d2d2d2d2d2d2d2d2d2d2d2d2d2d2d2d2d2d2d2d2d2d2d2d2d2d2d2d2d2d2d2d2d2d2d2d2d2d2d2d2d2d2d2d2d2d2d2d2d2d5265676973746572696e672025732e2573206f6e2074686520636f6e7472616374207769746820746f6b656e49442025642d2d2d2d2d2d2d2d2d2d2d2d2d2d2d2d2d2d2d2d2d2d2d2d2d2d2d2d2d2d2d2d2d2d2d2d2d2d2d2d2d2d2d2d2d2d2d2d2d2d2d2d2d2d2d2d0a4142434445464748494a4b4c4d4e4f505152535455565758595a6162636465666768696a6b6c6d6e6f707172737475767778797a303132333435363738392b2fa26469706673582212201d12f1ac092dd05c9057a7b3da646fb75f93f93a57ee803bf08458c96eadc4be64736f6c634300081100333c73766720786d6c6e733d22687474703a2f2f7777772e77332e6f72672f323030302f737667222077696474683d2232373022206865696768743d22323730222066696c6c3d226e6f6e65223e3c706174682066696c6c3d2275726c282342292220643d224d302030683237307632373048307a222f3e3c646566733e3c66696c7465722069643d22412220636f6c6f722d696e746572706f6c6174696f6e2d66696c746572733d2273524742222066696c746572556e6974733d227573657253706163654f6e55736522206865696768743d22323730222077696474683d22323730223e3c666544726f70536861646f772064783d2230222064793d22312220737464446576696174696f6e3d22322220666c6f6f642d6f7061636974793d222e323235222077696474683d223230302522206865696768743d2232303025222f3e3c2f66696c7465723e3c2f646566733e3c7061746820643d224d37322e3836332034322e393439632d2e3636382d2e3338372d312e3432362d2e35392d322e3139372d2e3539732d312e3532392e3230342d322e3139372e35396c2d31302e30383120362e3033322d362e383520332e3933342d31302e30383120362e303332632d2e3636382e3338372d312e3432362e35392d322e3139372e3539732d312e3532392d2e3230342d322e3139372d2e35396c2d382e3031332d342e37323161342e353220342e35322030203020312d312e3538392d312e363136632d2e3338342d2e3636352d2e3539342d312e3431382d2e3630382d322e313837762d392e3331632d2e3031332d2e3737352e3138352d312e3533382e3537322d322e32303861342e323520342e323520302030203120312e3632352d312e3539356c372e3838342d342e3539632e3636382d2e33383720312e3432362d2e353920322e3139372d2e353973312e3532392e32303420322e3139372e35396c372e38383420342e353961342e353220342e353220302030203120312e35383920312e363136632e3338342e3636352e35393420312e3431382e36303820322e31383776362e3033326c362e38352d342e303635762d362e303332632e3031332d2e3737352d2e3138352d312e3533382d2e3537322d322e32303861342e323520342e32352030203020302d312e3632352d312e3539354c34312e3435362032342e3539632d2e3636382d2e3338372d312e3432362d2e35392d322e3139372d2e3539732d312e3532392e3230342d322e3139372e35396c2d31342e38363420382e36353561342e323520342e32352030203020302d312e36323520312e353935632d2e3338372e36372d2e35383520312e3433342d2e35373220322e3230387631372e343431632d2e3031332e3737352e31383520312e3533382e35373220322e32303861342e323520342e323520302030203020312e36323520312e3539356c31342e38363420382e363535632e3636382e33383720312e3432362e353920322e3139372e353973312e3532392d2e32303420322e3139372d2e35396c31302e3038312d352e39303120362e38352d342e3036352031302e3038312d352e393031632e3636382d2e33383720312e3432362d2e353920322e3139372d2e353973312e3532392e32303420322e3139372e35396c372e38383420342e353961342e353220342e353220302030203120312e35383920312e363136632e3338342e3636352e35393420312e3431382e36303820322e31383776392e333131632e3031332e3737352d2e31383520312e3533382d2e35373220322e32303861342e323520342e32352030203020312d312e36323520312e3539356c2d372e38383420342e373231632d2e3636382e3338372d312e3432362e35392d322e3139372e3539732d312e3532392d2e3230342d322e3139372d2e35396c2d372e3838342d342e353961342e353220342e35322030203020312d312e3538392d312e363136632d2e3338352d2e3636352d2e3539342d312e3431382d2e3630382d322e313837762d362e3033326c2d362e383520342e30363576362e303332632d2e3031332e3737352e31383520312e3533382e35373220322e32303861342e323520342e323520302030203020312e36323520312e3539356c31342e38363420382e363535632e3636382e33383720312e3432362e353920322e3139372e353973312e3532392d2e32303420322e3139372d2e35396c31342e3836342d382e363535632e3635372d2e33393420312e3230342d2e393520312e3538392d312e363136732e3539342d312e3431382e3630392d322e3138375635352e353338632e3031332d2e3737352d2e3138352d312e3533382d2e3537322d322e32303861342e323520342e32352030203020302d312e3632352d312e3539356c2d31342e3939332d382e3738367a222066696c6c3d2223666666222f3e3c646566733e3c6c696e6561724772616469656e742069643d2242222078313d2230222079313d2230222078323d22323730222079323d2232373022206772616469656e74556e6974733d227573657253706163654f6e557365223e3c73746f702073746f702d636f6c6f723d2223636235656565222f3e3c73746f70206f66667365743d2231222073746f702d636f6c6f723d2223306364376534222073746f702d6f7061636974793d222e3939222f3e3c2f6c696e6561724772616469656e743e3c2f646566733e3c7465787420783d2233322e352220793d223233312220666f6e742d73697a653d223237222066696c6c3d2223666666222066696c7465723d2275726c282341292220666f6e742d66616d696c793d22506c7573204a616b617274612053616e732c44656a6156752053616e732c4e6f746f20436f6c6f7220456d6f6a692c4170706c6520436f6c6f7220456d6f6a692c73616e732d73657269662220666f6e742d7765696768743d22626f6c64223e",
    "linkReferences": {},
    "deployedLinkReferences": {}
}